:020000040000FA
:100000000C94E1000C94301F0C94091F0C9409010E
:100010000C9409010C9409010C94AF1F0C94090174
:100020000C9409010C9409010C9409010C94C61F4D
:100030000C9409010C9409010C9409010C94090118
:100040000C94BF1E0C9409010C947D1F0C94571F37
:100050000C9409010C9409010C9409010C940901F8
:100060000C9414210C940901084AD73B3BCE016E35
:1000700084BCBFFDC12F3D6C74319ABD56833DDAFF
:100080003D00C77F11BED9E4BB4C3E916BAAAABE0E
:10009000000000803F05A84CCDB2D44EB93836A937
:1000A000020C50B9918688083CA6AAAA2ABE000074
:1000B00000803F07634236B79BD8A71A39685618A5
:1000C000AEBAAB558C1D3CB7CC5763BD6DEDFD751D
:1000D0003EF6177231BF000000803F08000000BEEE
:1000E000922449123EABAAAA2ABECDCCCC4C3E00EB
:1000F000000080BEABAAAAAA3E00000000BF00001C
:1001000000803F0000000000084178D3BB4387D146
:10011000133D190E3CC3BD4282AD2B3E68EC827686
:10012000BED98FE1A93E4C80EFFFBE01C4FF7F3FE7
:100130000000000000000000010008004000000175
:100140000004050D005EBCE2613FDD83C29C7E20A1
:10015000A3FD1F41009D23BE46DB65F88C11AF3225
:10016000CA57E97400000000240027002A0000009C
:100170000000250028002B000000000800020100FC
:100180000003040700000000000000000000000061
:1001900023002600290004040404040404040202C9
:1001A00002020202030303030303010204081020F6
:1001B00040800102040810200102040810203322AC
:1001C000F03011241FBECFEFD8E0DEBFCDBF11E06D
:1001D000A0E0B1E0E8E9F4E702C005900D92A23E8C
:1001E000B107D9F726E0A2EEB1E001C01D92AD3A09
:1001F000B207E1F710E0C0EED0E004C02197FE01A5
:100200000E94F738CF3DD107C9F70E945E250C94B4
:100210003F3A0C94000008950895CF92DF92EF9238
:10022000FF92CF93DF93B0919D05A0E08111AB2F9A
:1002300080919E0590E0880F991FAC0144575E4F56
:10024000C090A305D090A405E090A505F090A60568
:1002500030E020E0FA01C591D491E881B90190E045
:1002600080E0EB23EA130AC02F5F3F4F6C157D053A
:100270008E059F0578F36FEF7FEFCB01DF91CF9174
:10028000FF90EF90DF90CF9008958230910538F085
:10029000880F991F880F991F05970197F1F7089507
:1002A000833081F028F4813099F08230A9F00895EC
:1002B0008730A9F08830C9F08430B1F48091800093
:1002C0008F7D03C0809180008F7780938000089598
:1002D00084B58F7784BD089584B58F7DFBCF8091E1
:1002E000B0008F778093B00008958091B0008F7D2B
:1002F000F9CF1F93CF93DF93282F30E0F901E8580F
:10030000FE4F8491F901E655FE4FD491F901EA566A
:10031000FE4FC491CC23A9F0162F81110E945001E9
:10032000EC2FF0E0EE0FFF1FE259FE4FA591B491C4
:100330008FB7F894EC91111108C0D095DE23DC93AF
:100340008FBFDF91CF911F910895DE2BF8CFCF9310
:10035000DF9390E0FC01E655FE4F24918A569E4FB4
:10036000FC0184918823C9F090E0880F991FFC015B
:10037000EC59FE4FA591B491FC01E259FE4FC59195
:10038000D49161110DC09FB7F8948C912095822370
:100390008C938881282328839FBFDF91CF91089574
:1003A000623051F49FB7F8943C91822F809583235B
:1003B0008C93E8812E2BEFCF8FB7F894EC912E2BF6
:1003C0002C938FBFEACF3FB7F89480917A02909137
:1003D0007B02A0917C02B0917D0226B5A89B05C04E
:1003E0002F3F19F00196A11DB11D3FBFBA2FA92FB4
:1003F000982F8827BC01CD01620F711D811D911DB1
:1004000042E0660F771F881F991F4A95D1F708951C
:100410008F929F92AF92BF92CF92DF92EF92FF9214
:100420006B017C010E94E3014B015C01C114D1040A
:10043000E104F104B9F00E94E301681979098A091D
:100440009B09683E73408105910580F321E0C21A43
:10045000D108E108F10888EE880E83E0981EA11CFF
:10046000B11CE4CFFF90EF90DF90CF90BF90AF90A2
:100470009F908F9008952FB7F894609176027091B5
:10048000770280917802909179022FBF0895CF92E0
:10049000DF92EF92FF920F931F93CF93DF93CDB72D
:1004A000DEB7C054D1400FB6F894DEBF0FBECDBF4B
:1004B0000E943B0200919F051091A0052091A1058B
:1004C0003091A2056B017C01C01AD10AE20AF30A3D
:1004D00097018601003D17402105310590F4809178
:1004E000A705C05CDE4F0FB6F894DEBF0FBECDBFD0
:1004F000DF91CF911F910F91FF90EF90DF90CF9000
:10050000089560939F057093A0058093A105909333
:10051000A20510929A0510929905109298051092D2
:1005200097051092960562E080919B050E94A701B5
:1005300061E070E080E090E00E94080261E080915C
:100540009B050E94A70160E080919B050E947901B4
:1005500080919C0585518230E0F48BE291E1019716
:10056000F1F762E080919B050E94A7018091A805A8
:1005700090E00E944501F89480E00E940D016F3FD9
:100580007F4F8F4F9F4F61F41092A705789480E0C2
:10059000A8CF64E170E080E090E00E940802E1CF23
:1005A00081E00E940D016F3F7F4F8F4F9F4F61F39E
:1005B0008E010F5F1F4F6E012FEBC21A2EEFD20A72
:1005C000780180E00E940D01F701608371838283CE
:1005D000938381E00E940D01F70164837583868314
:1005E0009783F8E0EF0EF11CEC14FD0451F77894BA
:1005F00030E020E0F801C080D180E280F3804481C7
:10060000558166817781FFEFCF16DF06EF06FF0683
:1006100031F04F3F8FEF58076807780719F41092B1
:10062000A705B5CFF90183E0F595E7958A95E1F740
:10063000EA56FA4F8081880FC416D506E606F706FB
:1006400010F180832F5F3F4F085F1F4F2832310525
:1006500089F640919A052091960580919705280F7B
:100660003327331F80919805280F311D80919905FC
:10067000820F932F911D99274817190681F681E063
:100680008093A7052ECF8160DCCFCF92DF92EF92CF
:10069000FF92CF930E944702882341F080919C05EE
:1006A0008C3009F44FC038F48B30F1F060E070E02A
:1006B00080EC9FE741C085518230C0F7C09198051A
:1006C0006C2F70E0762F662766277F7780919905DB
:1006D000682B90E080E00E94DA312DEC3CEC4CEC91
:1006E0005DE30E943B324AC06091980570E090E063
:1006F00080E00E94DA316B017C01C0919905C7FF4F
:100700000AC0AC019B0160E070E080E89FEB0E94B2
:1007100093336B017C01CF706C2F70E090E080E030
:100720000E94DC312DEC3CEC4CEC5DE30E943B3252
:10073000A70196010E949433CF91FF90EF90DF9034
:10074000CF900895C09198056C2F70E090E080E004
:100750000E94DA316B017C01609199056F7070E045
:1007600090E080E00E94DC312DEC3CEC4CEC5DE351
:100770000E943B32A70196010E949433C7FFDCCF51
:100780009058DACFCF92DF92EF92FF920E94470209
:10079000882349F080919C058B3028F08D3040F003
:1007A0008551823030F160E070E080EC9FE71CC042
:1007B0006091970570E090E080E00E94DC312DECC4
:1007C0003CEC4CEC5DE30E943B326B017C016091A0
:1007D000960570E090E080E00E94DC319B01AC0166
:1007E000C701B6010E949433FF90EF90DF90CF9045
:1007F000089560919605709197057627672776276B
:1008000090E080E00E94DA312DEC3CEC4CEC5DE3B2
:100810000E943B32E9CF8091820290918302891B32
:10082000990B089508958F929F92AF92BF92CF92A5
:10083000DF92EF92FF920F931F93CF93DF93EC0120
:100840006A017B0110E000E00E943B026887798723
:100850008A879B87E881F9810284F385E02DCE01A8
:10086000099597FF21C00E943B0288849984AA843D
:10087000BB84681979098A099B098C809D80AE80A8
:10088000BF80681579058A059B0520F3C801DF91B3
:10089000CF911F910F91FF90EF90DF90CF90BF907D
:1008A000AF909F908F900895F70181937F010F5F24
:1008B0001F4FC016D10641F6E9CFAF92BF92CF923B
:1008C000DF92EF92FF920F931F93CF93DF936C0110
:1008D0007B018B01040F151FEB015E01AE18BF08F1
:1008E000C017D10759F06991D601ED91FC910190A3
:1008F000F081E02DC6010995892B79F7C501DF91BB
:10090000CF911F910F91FF90EF90DF90CF90BF900C
:10091000AF900895FC01538D448D252F30E0842F36
:1009200090E0821B930B541710F0CF960895019717
:100930000895FC01918D828D981761F0A28DAE0F04
:10094000BF2FB11D5D968C91928D9F5F9F73928F8B
:1009500090E008958FEF9FEF0895FC01918D828DB7
:10096000981731F0828DE80FF11D858D90E0089584
:100970008FEF9FEF0895FC01918D228D892F90E0DC
:10098000805C9F4F821B91098F739927089585EF93
:1009900092E00E94BB0421E0892B09F420E0822F21
:1009A000089580E090E0892B29F00E94C70481110E
:1009B0000C9400000895FC01A48DA80FB92FB11D5F
:1009C000A35ABF4F2C91848D90E001968F73992785
:1009D000848FA689B7892C93A089B1898C91837063
:1009E00080648C93938D848D981306C00288F3895C
:1009F000E02D80818F7D80830895EF92FF920F9389
:100A00001F93CF93DF93EC0181E0888F9B8D8C8DBA
:100A100098131AC0E889F989808185FF15C09FB7AE
:100A2000F894EE89FF896083E889F9898081837071
:100A3000806480839FBF81E090E0DF91CF911F9120
:100A40000F91FF90EF900895F62E0B8D10E00F5F41
:100A50001F4F0F731127E02E8C8D8E110CC00FB617
:100A600007FCFACFE889F989808185FFF5CFCE01AF
:100A70000E94DB04F1CFEB8DEC0FFD2FF11DE35A4B
:100A8000FF4FF0829FB7F8940B8FEA89FB89808132
:100A90008062CFCFCF93DF93EC01888D8823B9F0AC
:100AA000AA89BB89E889F9898C9185FD03C0808179
:100AB00086FD0DC00FB607FCF7CF8C9185FFF2CFF6
:100AC000808185FFEDCFCE010E94DB04E9CFDF916D
:100AD000CF9108954115510529F4EAE7F0E08081AE
:100AE0008F7780836A307105B9F0CB01880F991F29
:100AF000880F991F807267706860682B88E10FB655
:100B0000F894A895809360000FBE60936000E0E6C3
:100B1000F0E0808180648083232BD9F483B7817FC8
:100B2000846083BFF89483B7816083BF85B7806694
:100B300085BF8F7D85BF7894889583B78E7F83BF6F
:100B40007894452B29F4EAE7F0E08081806880837F
:100B5000089583B7817F846083BFF89483B78160F1
:100B600083BF7894889583B78E7F83BF7894E9CFCD
:100B7000CF93DF93C1E5D0E030E020E050E040E0EB
:100B800069E070E084EF92E00E946A052197A1F786
:100B9000DF91CF910895DC0180E0615090F09D914C
:100BA0009827E92FEF70F0E0EC5BFE4F2491E92FDE
:100BB000E295EF70F0E0EC5AFE4FE491822F8E2721
:100BC000ECCF0895DC012C911196ED91FC91F894F5
:100BD0008181822B81839281322F3095932392835E
:100BE00087E090E00197F1F781818323818383E29D
:100BF00090E00197F1F790817894EFECF0E0319775
:100C0000F1F7922381E009F480E00895FC019081DE
:100C10000180F281E02D292F209560FF14C0F89407
:100C20008281822382838181892B8183A3E2B0E048
:100C30001197F1F78281982B9283789487ED90E059
:100C40000197F1F70895F89482818223828381814C
:100C5000892B8183AFEFB0E01197F1F78281982B58
:100C6000928378948FE090E0EBCFDF92EF92FF9247
:100C70000F931F93CF93DF93EC01D62EE42E08E061
:100C800010E0FF24F39461E08D2D8F2109F460E0E2
:100C9000CE010E940606FF0C01501109A1F7E110D8
:100CA00010C0F894E981FA81918188818095892327
:100CB0008183E981FA819281888180958923828369
:100CC0007894DF91CF911F910F91FF90EF90DF907B
:100CD0000895EF92FF920F931F93CF93DF938C01B0
:100CE0007B0140E065E50E943506E70188E0E80EFB
:100CF000F11C699140E0C8010E943506CE15DF0560
:100D0000C1F7DF91CF911F910F91FF90EF90089560
:100D1000FC0190810180F281E02DF8948181292FDE
:100D200020958223818378943DE743E050E0315061
:100D300029F1DA011197F1F780818923C1F3F89441
:100D40008281822382838181892B81837894ABE79E
:100D5000B7E01197F1F7F894818182238183A3E1B1
:100D6000B1E01197F1F78081982381E009F080E0EC
:100D70007894E3E6F6E03197F1F7089580E008957E
:100D80006F927F928F929F92AF92BF92CF92DF929B
:100D9000EF92FF920F931F93CF93DF938C01EB01A0
:100DA0008091A5039091A6030E948806882309F4E8
:100DB0003FC0B8018091A5039091A6030E946906E7
:100DC00040E06EEB8091A5039091A6030E9435064A
:100DD0007E016E0189E0C80ED11C8E01A090A50392
:100DE000B090A60388E0882E912C712C6624639421
:100DF000C5010E94E20581117628660CE1E08E1A99
:100E00009108B1F7F80171928F01CE16DF0631F724
:100E10008091A5039091A6030E948806813041F439
:100E2000F70181917F01811105C0E017F107C1F73A
:100E300090E008C068E0CE010E94CB0591E02885D3
:100E40002813F6CF892FDF91CF911F910F91FF903B
:100E5000EF90DF90CF90BF90AF909F908F907F905A
:100E60006F90089508958CE30895CF93DF93FC016C
:100E7000228133812230310569F0EC01678D858D47
:100E80000E94790160E08C8D0E94790182E090E0FF
:100E90009B838A83DF91CF91089581E008952FB7D6
:100EA000F89491E0662339F092E0613021F082E01D
:100EB00080932D0290E080912C02892B80932C024C
:100EC00080912D02811103C081E080932D022FBFFC
:100ED00008959FB7F89480912B02882319F08150D0
:100EE00080932B0280912B02811105C08CB58F7BE2
:100EF0008CBD10922D029FBF08958CB58F778CBD4D
:100F000008958CB580688CBD0895FC01738362835D
:100F10000895FC01778366830895FC0175836483DB
:100F2000089508950895FC01848995890895FC0128
:100F3000828993890895FC0180899189089580E0D0
:100F40000895FC01738362830895FC01828193817B
:100F50000895FC01868597850895FC018185089593
:100F6000FC0180850895FC0187810895FC0186813C
:100F700008954095FC0125854223642B65870895DB
:100F8000FC0164870895FC0163870895FC01628772
:100F90000895FC0164830895FC01658308958F9290
:100FA0009F92AF92BF92CF92DF92EF92FF92CF9338
:100FB000DF93EC016B010E943B024B015C01F12CC1
:100FC000E12C0E943B02681979098A099B096C157A
:100FD0007D058E059F0580F48A819B81039789F3A7
:100FE00081E0DF91CF91FF90EF90DF90CF90BF90A5
:100FF000AF909F908F90089580E0F3CFFC01228105
:10100000338123303105D1F381E008954F925F920F
:101010006F927F928F929F92AF92BF92CF92DF9208
:10102000EF92FF920F931F93CF93DF93EC016B012D
:101030008A010E943B022B013C01F12CE12C48016A
:10104000B12CA12C0E943B026419750986099709ED
:101050006C157D058E059F0588F4E881F981068071
:10106000F781E02DCE010995811109C00115110507
:1010700049F3C501B4010E940802E4CF80E0DF918A
:10108000CF911F910F91FF90EF90DF90CF90BF9085
:10109000AF909F908F907F906F905F904F9008954A
:1010A000CF92DF92EF92FF920F931F93CF93DF9334
:1010B000EC018B016B01F12CE12CE881F9810680B8
:1010C000F781E02DCE010995811108C001151105A8
:1010D000A1F3C701B6010E940802EFCFDF91CF91C3
:1010E0001F910F91FF90EF90DF90CF90089586278A
:1010F00020E1829FB00111248627482F50E0292F3C
:10110000382FCA0164E0959587956A95E1F72827FD
:101110003927CA0173E0880F991F7A95E1F7822772
:10112000932708956F927F928F929F92AF92BF9272
:10113000CF92DF92EF92FF920F931F93CF93DF93A3
:101140004D3388F0712C872DDF91CF911F910F9136
:10115000FF90EF90DF90CF90BF90AF909F908F90D7
:101160007F906F900895042F5B01EC01E881F98175
:101170000088F189E02D0995E881F9810688F789D1
:10118000E02DCE010995782E8823E1F27E0129E732
:10119000E20EF11C17E0100F612F8FEF9FEF0E94FE
:1011A0007708E12FF0E064E0F595E7956A95E1F7BF
:1011B000E65EFE4F2081F70120831F70E12FF0E0F3
:1011C000E65EFE4F2081FE01E658FF4F20831A8520
:1011D000612F0E947708E12FF0E074E0F595E79524
:1011E0007A95E1F7E65EFE4F2081FE01E558FF4F5C
:1011F00020831F70E12FF0E0E65EFE4F2081FE01AC
:10120000E458FF4F20831B85612F0E947708E12F50
:10121000F0E0A4E0F595E795AA95E1F7E65EFE4FCC
:101220002081FE01E358FF4F20831F70E12FF0E083
:10123000E65EFE4F2081FE01E258FF4F20831C85B1
:10124000612F0E947708E12FF0E0B4E0F595E79573
:10125000BA95E1F7E65EFE4F2081FE01E158FF4FAF
:1012600020831F70E12FF0E0E65EFE4F2081FE013B
:10127000E058FF4F20831D85612F0E947708E12FE2
:10128000F0E024E0F595E7952A95E1F7E65EFE4F5C
:101290002081FE01EF57FF4F20831F70E12FF0E008
:1012A000E65EFE4F2081FE01EE57FF4F2083650171
:1012B000470110E0A00EB11EF2E08F0E911CCA147F
:1012C000DB04E9F0F60161906F01662D0E9477085A
:1012D000E62DF0E054E0F595E7955A95E1F7E65EE6
:1012E000FE4F2081F4012087F6013197E081EF70F5
:1012F000F0E0E65EFE4F2081F4012187DDCF98010A
:101300002B5F3F4F220F331F80959095D701A20F7F
:10131000B31FFC0154E0F695E7955A95E1F7EF709D
:10132000FF27E65EFE4F30813C93F801EE0FFF1F72
:10133000BF016E0D7F1DAC014F705527465E5E4F9D
:10134000FA013081FB0133870A5F1F4F000F111F25
:101350000E0D1F1DFC01EF2FFF27E295EF70E65EDB
:10136000FE4F3081F8013083E92FFF27EF70FF2710
:10137000E65EFE4F808113968C93FE01E150FF4F95
:10138000245F20838A819B81039709F4DCCEE15995
:10139000F109108231961082319610826F8D81E0B2
:1013A00068278D8D0E94790183E090E09B838A837A
:1013B000CACEEF92FF921F93CF93DF93FC0122815D
:1013C00033812330310509F452C0EC0182819381CD
:1013D000049761F0678D858D0E94790160E08C8DA6
:1013E0000E94790184E090E09B838A8388A188230E
:1013F000E9F010E08FEF9FEF7E01FDE6EF0EF11CAC
:10140000F7012081121740F4FE01E10FF11D61A5E3
:101410000E9477081F5FF4CF883B904F71F0888956
:1014200099890196998B888B19A218A289A1DF91BD
:10143000CF911F91FF90EF9008958AA58E838BA581
:101440008F838CA588878DA589878D81811107C0A1
:101450009E818C81981719F08E818F3F31F78A8990
:101460009B8901969B8B8A8B81E089A3DECF80E0EC
:10147000DECF8EBD00000DB407FEFDCF8EB5089502
:10148000862F0C94390ACF93CFB7F89480912B0212
:10149000811127C0E0EAF1E08491E4EBF1E094915E
:1014A000E82FF0E0EE0FFF1FEC59FE4FA591B4912D
:1014B000EC91E92321F461E08AE00E94790161E086
:1014C0008AE00E94A7018CB580618CBD8CB58064D8
:1014D0008CBD61E08DE00E94A70161E08BE00E947D
:1014E000A70180912B028F5F80932B02CFBFCF91FA
:1014F000089520910802260F3327331F213231052A
:10150000ECF42091EE02FC0190E080E0243069F0E0
:1015100082E00895A09108022191AC0148515E4FEC
:10152000A40FB52FB11D2C930196861798F38091C7
:101530000802680F6093080280E0089581E0089532
:101540001092EE0281E08093CD021092C80261E019
:1015500082E10E94790161E083E10E947901E9EB77
:10156000F0E080818E7F808380818D7F808388E41E
:101570008093B80085E48093BC00089510928302A4
:1015800010928202109285021092A7020E94A00A75
:101590008BE091E090938102809380028CE091E057
:1015A00090937F0280937E020895CF93DF9391E022
:1015B0009093E7018823B9F0C091B800D091BA00A8
:1015C0008091BC008A7B8093BC0060E082E10E9435
:1015D000790160E083E10E9479010E94A00AD09322
:1015E000BA00C093B800DF91CF9108958F929F9277
:1015F000AF92BF92CF92DF92EF92FF920F931F9321
:10160000CF93DF93D82FC62F142F613208F09CC0E0
:101610000E94E3016B017C018091EE0281116FC099
:1016200081E08093EE021093CD029FEF9093CC0265
:101630001092CB029C0F9093CA028093C9028091B2
:10164000C902DD0FD82BD093C9028091C802813026
:1016500009F07CC01092C8020E94E3016B017C017A
:101660008091C9028093BB008091F0029091F102B9
:10167000A091F202B091F302892B8A2B8B2BA1F05F
:101680000E94E3010091F0021091F1022091F20218
:101690003091F3026C197D098E099F09061717070F
:1016A0002807390708F44CC08091BC0083FDD8CFCF
:1016B00085EC8093BC000E94E3016B017C0180916A
:1016C000EE02813009F444C08091CB028C1710F4F3
:1016D000C091CB02E8EAF2E0AEECB2E080E08C131D
:1016E00059C08C2FDF91CF911F910F91FF90EF90F8
:1016F000DF90CF90BF90AF909F908F900895809192
:10170000F0029091F102A091F202B091F302892BC4
:101710008A2B8B2B09F480CF0E94E3018090F0028A
:101720009090F102A090F202B090F3026C197D0942
:101730008E099F0986169706A806B90608F06CCF91
:101740008091EF020E94D50AC0E0CBCF85EEB1CFE9
:101750008091F0029091F102A091F202B091F30217
:10176000892B8A2B8B2B09F4AACF0E94E3010091CD
:10177000F0021091F1022091F2023091F3026C1903
:101780007D098E099F09061717072807390708F0F2
:1017900096CFD6CF91919D938F5FA1CF8F929F923D
:1017A000AF92BF92CF92DF92EF92FF920F931F936F
:1017B000CF93DF93D091A702D13208F0D7C0182F72
:1017C000C091A6020E94E3016B017C018091EE02B0
:1017D00081116BC082E08093EE021093CD028FEFF7
:1017E0008093CC021092CB02D093CA02A6E8B2E05A
:1017F000E8EAF2E080E0D81391C01092C90280912B
:10180000C902CC0FC82BC093C9028091C802813095
:1018100009F088C01092C8020E94E3016B017C01AC
:101820008091C9028093BB008091F0029091F102F7
:10183000A091F202B091F302892B8A2B8B2BA1F09D
:101840000E94E3010091F0021091F1022091F20256
:101850003091F3026C197D098E099F09061717074D
:101860002807390708F442C08091BC0083FDD8CF17
:1018700085EC8093BC000E94E3016B017C018091A8
:10188000EE02823009F450C08091CC028F3F09F4FF
:101890006FC08091CC02803209F46CC08091CC0280
:1018A000803309F469C084E026C08091F0029091F1
:1018B000F102A091F202B091F302892B8A2B8B2BBB
:1018C00009F484CF0E94E3018090F0029090F1022D
:1018D000A090F202B090F3026C197D098E099F0965
:1018E00086169706A806B90608F070CF8091EF0219
:1018F0000E94D50A85E0109285021092A7021092EC
:101900008402DF91CF911F910F91FF90EF90DF90B4
:10191000CF90BF90AF909F908F9008959D9191939D
:101920008F5F69CF85EEA5CF8091F0029091F10293
:10193000A091F202B091F302892B8A2B8B2B09F430
:101940009ECF0E94E3010091F0021091F1022091DC
:10195000F2023091F3026C197D098E099F09061776
:1019600017072807390708F08ACFC0CF81E0C3CF17
:1019700080E0C1CF82E0BFCF83E0BDCF0895E0918A
:10198000830280918202E81730F4F0E0E253FD4FC9
:10199000808190E008958FEF9FEF089590918302EA
:1019A000809182022FEF3FEF981748F4E92FF0E083
:1019B000E253FD4F208130E09F5F90938302C90185
:1019C0000895CF92DF92EF92FF920F931F93CF93E0
:1019D000DF937C01CB018A0120918402222389F0CC
:1019E000EB016B01C40ED51ECC15DD0569F06991C4
:1019F000D701ED91FC910190F081E02DC70109958F
:101A0000F3CF642F0E94790AC801DF91CF911F9113
:101A10000F91FF90EF90DF90CF900895CF93DF93D9
:101A20001F92CDB7DEB76983209184022223F9F09B
:101A30002091A702203258F021E030E0FC013383EE
:101A4000228390E080E00F90DF91CF910895809104
:101A50008502E82FF0E0EA57FD4F998190838F5F70
:101A6000809385028093A70281E090E0ECCF61E053
:101A7000CE0101960E94790AF7CF90E080E00895A8
:101A8000AF92BF92CF92DF92EF92FF920F931F938C
:101A9000CF93DF93EC0188819981892B89F06EBD0A
:101AA0000DB407FEFDCFBEB48B2DDF91CF911F91FA
:101AB0000F91FF90EF90DF90CF90BF90AF9008957F
:101AC0008885998511E0892B09F010E8AA24A39450
:101AD000862F812309F0A12C062F2C813D814E8178
:101AE0005F8160E271EA87E090E00E946233F22E4B
:101AF000B02EE12CC22ED12CFF2019F0C6010E947D
:101B000045018A85877F09F042C08D858F3F89F026
:101B1000902F912381E009F480E08A1551F0EF8540
:101B2000F8898F89992369F19081892B8083AA2470
:101B3000A394E989FA898081998D892B8083FF207C
:101B400019F0C6010E9445018E858F3F39F0EB895F
:101B5000FC898081988D892309F0E12AE989FA8935
:101B60009081898D8095892380838E858F3F09F0B0
:101B7000BE2C88859985892BB9F5110F1111BCCF21
:101B800093CF9081809589238083A12CD2CFE9893E
:101B9000FA898081998D892B8083FF2019F0C601F5
:101BA0000E9445018D858F3F49F0EF85F8898F8927
:101BB000902F9123A9F09081892B8083E989FA895C
:101BC0009081898D8095892380838E858F3F69F2EE
:101BD000EB89FC898081988D892339F2E12AC5CF70
:101BE000908180958923E9CF1695C8CF80912D02E9
:101BF000882361F09FB7F89420912D028091E6012F
:101C0000213019F48DBB9FBF08958FBF08950C94A8
:101C1000F60DCF93DF93EC018B858F3F19F061E0D8
:101C20000E94790188819981892B21F0DF91CF91E0
:101C30000C94F60DDF91CF91089520912D0222236F
:101C400081F03FB7F89420912D02213069F42DB333
:101C50002093E6014DB320912C02209524232DBB27
:101C60003FBF8CBD9DBD08953093E601FACFFC01C6
:101C7000808591850C941D0ECF93DF93EC018881B4
:101C80009981892B31F0EA81FB81808191810E94C9
:101C90001D0E8B858F3F29F060E0DF91CF910C9472
:101CA0007901DF91CF910895CF92DF92EF92FF9269
:101CB0000F931F93CF93DF938C01EB016A0179019E
:101CC0000E943C0E6881C8010E94400DE601EC0CA8
:101CD000FD1C6FEFC8010E94400D8993CE15DF05F2
:101CE000C1F7C8010E94090E81E0DF91CF911F91D9
:101CF0000F91FF90EF90DF90CF9008951F93CF93B7
:101D0000DF93EA01122FDC0111968D919C91DC0189
:101D1000ED91FC910280F381E02D0995C817D90758
:101D200029F4812F0E94CE0B91E0811190E0892F40
:101D3000DF91CF911F910895CF93DF93EC018B81B9
:101D40008823A1F0888191E0909384028093A60279
:101D5000109285021092A70281E00E94CE0B91E0C2
:101D6000811190E0892FDF91CF9108950E94BE0AE2
:101D700081E08B83CE010E949C0E982F8111E2CFCF
:101D8000F1CF08950895CF93DF93CDB7DEB76E9767
:101D90000FB6F894DEBF0FBECDBF21E030E03A832E
:101DA00029838330910509F497C034F5813091057A
:101DB000F1F18230910509F48FC081E080938402B3
:101DC00088E08093A602109285021092A7024EE14D
:101DD00050E0BE016F5F7F4F81EC93E00E94E10C09
:101DE00081E00E94CE0B6E960FB6F894DEBF0FBE58
:101DF000CDBFDF91CF9108958530910509F46CC076
:101E000094F086309105C9F69A8389831B821C82DF
:101E10001D821E821F82188619861A861B861C86C2
:101E20001D861E8681C084E090E09A83898380911C
:101E30004F0290915002A0915102B09152028B83B7
:101E40009C83AD83BE838091530290915402A091F4
:101E50005502B09156028F839887A987BA878091DF
:101E6000570290915802A0915902B0915A028B8763
:101E70009C87AD87BE8780915B0290915C02A091A8
:101E80005D02B0915E028F87988BA98BBA8B80918F
:101E90005F0290916002A0916102B09162028B8B0F
:101EA0009C8BAD8BBE8B8091630290916402A0915C
:101EB0006502B09166028F8B988FA98FBA8F80913F
:101EC000670290916802A0916902B0916A028B8FBB
:101ED0009C8FAD8FBE8F71CF9A83898360916B0287
:101EE00070916C02072E000C880B990B0E94DC315C
:101EF0006B837C838D839E8380916D0290916E02B3
:101F0000A0916F02B09170028F839887A987BA87DA
:101F10008091710290917202A0917302B09174024B
:101F20008B879C87AD87BE871F86188A198A1A8A75
:101F30001B8A1C8A1D8A1E8A1F8A188E198E1A8E69
:101F40001B8E1C8E1D8E1E8E38CFCF93DF93CDB788
:101F5000DEB7E2970FB6F894DEBF0FBECDBFEBE65B
:101F6000F2E0808191819A83898382819381A48127
:101F7000B5818B839C83AD83BE8386819781A08549
:101F8000B1858F839887A987BA8780913402909111
:101F900035029C878B8780913202909133029E8715
:101FA0008D878091300290913102988B8F8780913C
:101FB0003A0290913B029A8B898B809138029091E2
:101FC00039029C8B8B8B80913602909137029E8BCD
:101FD0008D8BEFE4F2E080819181A281B3818F8BC0
:101FE000988FA98FBA8F84819581A681B7818B8FB5
:101FF0009C8FAD8FBE8F80859185A285B3858F8F95
:1020000098A3A9A3BAA384859585A685B7858BA334
:102010009CA3ADA3BEA380899189A289B3898FA314
:1020200098A7A9A7BAA784899589A689B7898BA7F4
:102030009CA7ADA7BEA7808D918DA28DB38D8FA7D4
:1020400098ABA9ABBAAB42E3BE016F5F7F4F89EAA1
:1020500095E00E94920889EA95E00E94FE07E296C8
:102060000FB6F894DEBF0FBECDBFDF91CF910895BC
:102070000F931F93CF93DF9300D0CDB7DEB76A8362
:10208000E0916B05F0916C053097F9F089838481BC
:102090009581029798F0808191E0909384028093DB
:1020A000A602109285021092A70221E042E050E0C1
:1020B000BE016F5F7F4FCF010E947E0E0F900F9089
:1020C000DF91CF911F910F9108958F7789830091B0
:1020D0006D0510916E05C8010E943C0E6981C80112
:1020E0000E94400D6A81C8010E94400DC8010E94F3
:1020F000090EE4CF5F926F927F928F929F92AF9280
:10210000BF92CF92DF92EF92FF920F931F93CF93E4
:10211000DF93DC011496ED91FC911597EF2B09F4F8
:1021200065C069013A01EC01888191E090938402D5
:102130008093A602109285021092A70220E041E04F
:1021400050E0CD010E947E0E582E882309F44EC027
:10215000F12CE12C8C819D8186010E191F098017BD
:10216000910708F48C0141E0C601801B910BE81631
:10217000F90608F440E0602F013208F060E288813F
:102180000E94F60A10928302809382028017110641
:1021900069F543018E0C9F1C5401C50188199909EA
:1021A0008017910768F489819A81DC01ED91FC9197
:1021B0000284F385E02D0995F50181935F01EDCF50
:1021C000E00EF11EEC14FD0428F2852DDF91CF9175
:1021D0001F910F91FF90EF90DF90CF90BF90AF9045
:1021E0009F908F907F906F905F900895512CEDCFCE
:1021F000CF93DF9300D0CDB7DEB7E0916B05F091C0
:102200006C05898322E030E0AE014F5F5F4FBA0179
:10221000309751F0CF010E947A1089819A810F90F6
:102220000F90DF91CF91089580916D0590916E058B
:102230000E94540EF2CFCF93DF9300D01F92CDB700
:10224000DEB7FC0182819381698323E030E0AE0137
:102250004F5F5F4FBA010097A1F00E947A10298169
:102260006A8170E090E080E0982F872F762F6627B4
:10227000822B2B81622B0F900F900F90DF91CF91CB
:102280000895848195810E94540EE9CF8F929F9288
:10229000AF92BF92CF92DF92EF92FF920F931F9374
:1022A000CF93DF93EC016AEF0E941B110B891C890D
:1022B00030E020E0C72ED82EE92EFF24E7FCFA9468
:1022C000C01AD10AE20AF30A57E0959587957795E7
:1022D00067955A95D1F7000F111F221F331F4B012D
:1022E0005C01801A910AA20AB30AA5019401AD8982
:1022F000BE890E9423334B015C01FBE0B594A79497
:1023000097948794FA95D1F7A7019601C701B60172
:102310000E9473379B01AC01ACE05595479537950A
:102320002795AA95D1F7AF89B88D0E9423339B01D9
:10233000AC01BEE05595479537952795BA95D1F7ED
:10234000280D391D4A1D5B1D2F87388B498B5A8BF1
:10235000A5E0B0E00E94183360587F4F8F4F9F4F29
:10236000672F782F892F992787FD9A950E94DC3156
:1023700020E030E048EC52E40E947734DF91CF91C6
:102380001F910F91FF90EF90DF90CF90BF90AF9093
:102390009F908F9008952F923F924F925F926F92ED
:1023A0007F928F929F92AF92BF92CF92DF92EF92E5
:1023B000FF920F931F93CF93DF93CDB7DEB76D9747
:1023C0000FB6F894DEBF0FBECDBFDC011B964D915A
:1023D0005D916D917C911E97452B462B472B09F4FF
:1023E000E4C19D8F8C8F0E94461167EF8C8D9D8D6F
:1023F0000E941B11688F798F8A8F9B8FEC8DFD8DCA
:1024000087859089A189B2896C017D01FF0CCC0878
:10241000DC2C76019C01AD016C2D7C2D8C2D9C2D2E
:10242000345F414051096109710981099109298786
:102430003A874B875C873B014C0159016A017B015C
:102440008C010E949737322E232E4A8B5B8B6C8B2C
:102450007D8B8E8B9F8BAC8DBD8D5C963C915C97FC
:102460005B962C91932F990F990B492F592F692F18
:10247000792F892F0E9497370CE00E948F38522EB7
:1024800039834D875E876F87788B898B492EEC8DDA
:10249000FD8D368D258D932F990F990BA32CB22C82
:1024A000CA88DB88EC88FD880E891F89492F592F3F
:1024B000692F792F892F0E94973708E00E94A8384A
:1024C000A52CB980CD84DE84EF84F8880989142D89
:1024D0000E94C53870588F4F9F4FAC8DBD8D599657
:1024E000ED91FC915F01D12CC12CE12CF12C8701E5
:1024F000E983BA82CB82DC82ED82FE820F83188769
:10250000C12CD12CE12CF12C00E010E00E94973777
:1025100001E20E94A8382983532E4D875E876F877A
:10252000788B898B492EA0E00E94D73809F442C1EC
:10253000AC8DBD8D94963C91949793962C91932F4E
:10254000990F990BA32CB22CCA88DB88EC88FD88E4
:102550000E891F89492F592F692F792F892F0E94A2
:10256000973719014A8B5B8B6C8B7D8B8E8B9F8B86
:10257000EC8DFD8D32A121A1932F990F990BA98488
:10258000BA84CB84DC8473018401492F592F692FCD
:10259000792F892F0E94973701E10E948F385101CE
:1025A000CA88DB88EC88FD880E891F890E94C5389F
:1025B00059016A017B01282E192F488D598D6A8D8A
:1025C0007B8D84E075956795579547958A95D1F7EA
:1025D00080E090E0A0E1B0E0841B950BA60BB70B68
:1025E0003C014D01990C6608762C43019C01AD011C
:1025F000662D762D862D962D0FE10E948F38722E36
:10260000832E942E652EB62FA72F382E9987EC8D0A
:10261000FD8D30A1278D932F990F990B492F592F9D
:10262000692F792F892F03E20E948F38022D0E9493
:10263000C53859016A017B018C01272D382D492DA0
:10264000562D6B2F7A2F832D99850E94CE38E5E386
:10265000AE2EFCE0BF2EC12CD12CE12CF12C00E0E1
:1026600010E00E949737A980B52CCD84DE84EF84DA
:10267000F8880989142D0E94F13729873A874B87FA
:102680005C8769837D878E879F870DE00E94A838CD
:10269000922E832E742E652E562E472E382E292EDE
:1026A000AC8DBD8D9A963C919A9799962C91932FCB
:1026B000990F990BA92CB82CC72CD62CE52CF42CEF
:1026C000032D122D492F592F692F792F892F0E9401
:1026D00097370E94973709E10E94A838A984BA84E5
:1026E000CB84DC84E980FD840E851F850E94C5387B
:1026F00019012A013B014C01EC8DFD8D30A527A16C
:10270000932F990F990B492F592F692F792F892FC3
:102710000E94973703E10E94A83859016A017B01A2
:102720008C019101A201B301C4010E94C53808E0E7
:102730000E94A83859016A017B01E82F192FAC8D3E
:10274000BD8D96963C91969795962C91932F990FC7
:10275000990B492F592F692F792F892F04E00E9457
:102760008F380E2F0E94C5380E94E93420E030E0F7
:1027700040E85BE30E943B326D960FB6F894DEBFF3
:102780000FBECDBFDF91CF911F910F91FF90EF90C2
:10279000DF90CF90BF90AF909F908F907F906F9081
:1027A0005F904F903F902F90089560E070E080EC34
:1027B0009FE7E2CF60E070E0CB01DECF89E695E0F5
:1027C0000E94CB1120E030E048EC52E40E947734C4
:1027D0006093E2017093E3018093E4019093E5013B
:1027E0000895CF92DF92EF92FF926B017C0120E07F
:1027F00030E0A9010E94D5318823E1F020E030E0EB
:1028000040E85FE3C701B6010E94D53181111FC0C6
:1028100081E090E0909305018093040190936C0215
:1028200080936B0268E873E180E090E00E94080208
:102830000E94A50F809104019091050190930701DA
:1028400080930601FF90EF90DF90CF90089520E0F5
:1028500030E040E050E4C701B6010E94D53181115B
:1028600003C00E94DE13E6CF20E030E040E450E4F5
:10287000C701B6010E94D531811107C082E090E006
:102880009093050180930401D5CF20E030E040E82B
:1028900050E4C701B6010E94D531811103C083E025
:1028A00090E0EECF20E030E040EA50E4C701B6010E
:1028B0000E94D5318111BECF84E090E0E1CFBF927C
:1028C000CF92DF92EF92FF920F931F93CF93DF93FC
:1028D000EC01B62EC72E8D85811105C0CE010E9458
:1028E000880681110EC01B861D861C8680E0DF9144
:1028F000CF911F910F91FF90EF90DF90CF90BF90FD
:10290000089540E060EFCE010E94350601E0E12C21
:10291000D12C11E0CE010E94E205F82ECE010E94DA
:10292000E20591E0F91218C0813099F51134D8F21E
:10293000DB86D11002C081E08D878B81882399F2DC
:102940002396EB2DFC2DCF01089629912193E817B2
:10295000F907D9F781E0CBCFEE2DF0E0F8120FC0E8
:102960008B851817A0F4DE01AE0FBF1F13968C9154
:10297000802379F4F12C193008F41C87D12EEC0F48
:10298000FD1F8381902F9095892383830AC0811333
:10299000F1CFFE01EE0DF11D8381802B8383FF2497
:1029A000F3946F2DCE010E9406061F5F000F11F4F5
:1029B000E39401E087E08E1508F0ACCFB7CFFF922B
:1029C0000F931F93CF93DF938C01F62EE091A50315
:1029D000F091A6031386158614861286118610863A
:1029E00017821682158214821382C0E0B80180918A
:1029F000A5039091A6030E945F14D82F882329F085
:102A0000FC1629F0CF5FFC1688F7D0E008C067E01D
:102A1000C8010E94CB05F80197818913F3CF8D2F50
:102A2000DF91CF911F910F91FF900895FC010190CC
:102A30000020E9F73197AF01481B590BBC0185EF26
:102A400092E00C945D040C9499390C9499390C948F
:102A500099390E94223ADF92EF92FF920F931F93CF
:102A6000CF93DF93EC017B018A01E881F981068035
:102A7000F781E02D0995D82E8823D1F0E114F104D7
:102A8000B1F00115110599F0FE01E359FF4F808166
:102A90008750F8019081891708F48083F8014081FC
:102AA00050E0BE01625D7F4FC7010E94273A19A224
:102AB0008D2DDF91CF911F910F91FF90EF90DF90BF
:102AC00008954F925F926F927F92AF92BF92CF9292
:102AD000DF92EF92FF921F93CF93DF9300D0CDB799
:102AE000DEB77C0190932F0280932E0261E0FC01FF
:102AF000848D0E94A70160E0F701838D0E94A701E9
:102B000061E0F701858D0E94A701C7010E9435078A
:102B1000F701C18CD28CC114D10409F444C0F12C4A
:102B2000E12C83E0CC0CDD1CEE1CFF1C8A95D1F758
:102B300098E3A92E91E0B92E11E0412C24E2522E07
:102B400024EF622E712C42E050E0B501CE010196D7
:102B50000E94CC3129813A8150E040E0C301B201AA
:102B60000E946233CA01B901A70196010E94623333
:102B7000DA01C9010297A109B1098D3F9F4FA10553
:102B8000B10510F11F5F62E0A60EB11C1730D9F637
:102B9000223031054105510530F02115310581E024
:102BA0004807510598F081E00F900F90DF91CF9189
:102BB0001F91FF90EF90DF90CF90BF90AF907F90EC
:102BC0006F905F904F900895163069F310928000D7
:102BD00088E08093810080918100182B1093810000
:102BE000309389002093880080916F0082608093E9
:102BF0006F00D9CF8F929F92AF92BF92CF92DF9208
:102C0000EF92FF92CF93DF93FC012789308D232B26
:102C1000B9F1EC010E943B024B015C0189E0C82E36
:102C2000D12CE12CF12CE881F981008CF18DE02D83
:102C3000CE010995882321F10E943B02AB01BC0122
:102C4000481959096A097B098F89988DB0E0A0E07D
:102C500084179507A607B707F8F00E947431A701FB
:102C600096010E94F9329B01AC012F5F3F4F4F4FFD
:102C70005F4FA4E6B0E00E9418330E940802D3CF51
:102C800081E0DF91CF91FF90EF90DF90CF90BF90E8
:102C9000AF909F908F90089580E0F3CF85ED809363
:102CA000BC008091F0029091F102A091F202B091EB
:102CB000F3020796A11DB11D23E0B695A795979540
:102CC00087952A95D1F72091BC0024FD03C010926E
:102CD000EE0208954091F0025091F1026091F202EB
:102CE0007091F302452B462B472B69F30097A10502
:102CF000B10541F02AE22A95F1F700C00197A10938
:102D0000B109E1CF8091EF020C94D50ACF92DF9206
:102D1000EF92FF920F93FC01C12C92E1D92E9AE71A
:102D2000E92EF12C90E04C155D056E057F0540F411
:102D3000F694E794D794C7949F5F9630A1F797E0F5
:102D400031E0392780E5211101C080E7232F269546
:102D5000022B082B00839095917091830F91FF9027
:102D6000EF90DF90CF900895CF92DF92EF92FF9295
:102D70000F931F93CF93DF9300D0CDB7DEB7182FFB
:102D8000F62EE42ED52E8091D903882309F44AC06B
:102D90008091DA038823E9F14091E0035091E10347
:102DA0006091E2037091E3030CE021E0CE01019613
:102DB0000E94861689819A810E941D0E60E0809192
:102DC000D8030E9479018091DB03812B0E94390A8C
:102DD000CE2C0E2D1D2D80E00E94390AD8018D9336
:102DE0008D018A2F8C198F15B0F361E08091D80383
:102DF0000E9479010E94F60D81E090E00F900F9003
:102E0000DF91CF911F910F91FF90EF90DF90CF90C6
:102E100008954091DC035091DD036091DE037091D1
:102E2000DF03C2CF8091CE039091CF032091CD03D9
:102E300031E0309384022093A60210928502109212
:102E4000A702DC01ED91FC910190F081E02D612F52
:102E5000099580E00E94CE0B41E06F2D8091CD035B
:102E60000E94F60A109283028093820290E090936F
:102E7000D5038093D403F8161906B1F4CE2C0E2D89
:102E80001D2D8091CE039091CF03DC01ED91FC913B
:102E90000284F385E02D0995F80181938F018E2F2F
:102EA0008C198F1570F3A8CF8FEF9FEFA7CF2F92BC
:102EB0003F924F925F926F927F928F929F92AF92CA
:102EC000BF92CF92DF92EF92FF920F931F93CF9317
:102ED000DF93CDB7DEB76A970FB6F894DEBF0FBEAB
:102EE000CDBF81E08093DA0346EE53E065E1809147
:102EF0001C050E94B41697FDFAC2A090E603B0909C
:102F0000E703BA24AB24BA24B092FC03A092FB03DB
:102F1000C090E803D090E903DC24CD24DC24D092D7
:102F2000FE03C092FD03E090EA03F090EB03FE2461
:102F3000EF24FE24F0920004E092FF036091EC0382
:102F40007091ED03362F272F3A83298330930E0497
:102F500020930D048090EE039090EF039824892431
:102F6000982490920204809201040091F003109141
:102F7000F103102701271027109304040093030482
:102F80004091F2035091F3035427452754275A8F59
:102F9000498F50930604409305048091F403909167
:102FA000F5039C838B8390930804809307042091FE
:102FB000F6033091F7033E832D8330930A04209368
:102FC00009044091F8035091F90358874F835093B7
:102FD0000C0440930B0480910205909103059A879D
:102FE000898720910405309105053C872B87409106
:102FF0000605509107055E874D8740903804509034
:10300000390460903A0470903B049C01A29EC00178
:10301000A39E900DB29E900D11244B855C85C49E9D
:10302000B001C59E700DD49E700D1124680F791FDC
:103030002D853E85E29EC001E39E900DF29E900D8F
:103040001124680F791F072E000C880B990B0E9422
:10305000DC31A30192010E943B322091990430910E
:103060009A0440919B0450919C040E9493332091B8
:10307000A5043091A6044091A7045091A8040E9491
:103080003B3260930F04709310048093110490936B
:1030900012044091080550910905588B4F87809183
:1030A0000A0590910B059A8B898B20910C05309124
:1030B0000D053C8B2B8BA49EC001A59E900DB49E4C
:1030C000900D112449895A89C49EB001C59E700D86
:1030D000D49E700D1124680F791FE29EC001E39EFB
:1030E000900DF29E900D1124680F791F072E000C91
:1030F000880B990B0E94DC31A30192010E943B32A4
:1031000020919D0430919E0440919F045091A00411
:103110000E9493332091A9043091AA044091AB04FA
:103120005091AC040E943B326093130470931404DA
:10313000809315049093160480910E0590910F05CD
:103140009E8B8D8B2091100530911105388F2F8B20
:103150002090120530901305A89EB001A99E700D15
:10316000B89E700D1124C29EC001C39E900DD29EC8
:10317000900D1124680F791FE29CC001E39C900D13
:10318000F29C900D1124680F791F072E000C880BFC
:10319000990B0E94DC31A30192010E943B322091E5
:1031A000A1043091A2044091A3045091A4040E9470
:1031B00093332091AD043091AE044091AF0450910F
:1031C000B0040E943B3260931704709318048093FC
:1031D000190490931A04C0903C04D0903D04E090F0
:1031E0003E04F0903F0449855A85849EB001859E37
:1031F000700D949E700D11242B853C85029FC0019B
:10320000039F900D129F900D1124680F791F498D17
:103210005A8D2D853E85429FC001439F900D529F40
:10322000900D1124680F791F072E000C880B990B45
:103230000E94DC31A70196010E943B322091690473
:1032400030916A0440916B0450916C040E94933356
:1032500060931B0470931C0480931D0490931E04C0
:103260004F855889849EC001859E900D949E900D37
:10327000112429893A89029FB001039F700D129F82
:10328000700D1124680F791F498D5A8D2B893C8947
:10329000429FC001439F900D529F900D1124680FD3
:1032A000791F072E000C880B990B0E94DC31A701B7
:1032B00096010E943B3220916D0430916E04409142
:1032C0006F04509170040E94933360931F047093B5
:1032D000200480932104909322044D895E89849E6A
:1032E000B001859E700D949E700D11242F89388D2C
:1032F000029FC001039F900D129F900D1124680F33
:10330000791F498D5A8D429DC001439D900D529D5C
:10331000900D1124680F791F072E000C880B990B54
:103320000E94DC31A70196010E943B32209171047A
:103330003091720440917304509174040E9493334D
:1033400060932304709324048093250490932604AF
:103350002B813C81B901330F880B990B0E94DC3122
:103360002091400430914104409142045091430423
:103370000E943B322091E6043091E7044091E8043A
:103380005091E9040E9493332091F2043091F304A8
:103390004091F4045091F5040E943B32609327045D
:1033A000709328048093290490932A044D815E81B0
:1033B000BA01550F880B990B0E94DC31209144040F
:1033C0003091450440914604509147040E943B329D
:1033D0002091EA043091EB044091EC045091ED040B
:1033E0000E9493332091F6043091F7044091F80441
:1033F0005091F9040E943B3260932B0470932C048B
:1034000080932D0490932E042F813885B901330FBA
:10341000880B990B0E94DC312091480430914904BB
:1034200040914A0450914B040E943B322091EE049B
:103430003091EF044091F0045091F1040E949333D5
:103440002091FA043091FB044091FC045091FD045A
:103450000E943B3260932F047093300480933104B8
:1034600090933204C0905004D0905104E0905204E4
:10347000F090530449815A81BA01550F880B990B7A
:103480000E94DC31A70196010E94933320914C04E5
:1034900030914D0440914E0450914F040E94773476
:1034A000A70196010E94943360933304709334040F
:1034B000809335049093360481E090E06A960FB6CD
:1034C000F894DEBF0FBECDBFDF91CF911F910F915A
:1034D000FF90EF90DF90CF90BF90AF909F908F9034
:1034E0007F906F905F904F903F902F9008958FEF57
:1034F0009FEFE4CFFF920F931F93CF93DF9300D002
:10350000CDB7DEB7F82E162F8091D9038823F1F1BD
:103510004091DC035091DD036091DE037091DF0385
:103520000CE021E0CE0101960E94861689819A81E5
:103530000E941D0E60E08091D8030E9479018F2DBA
:103540000E94390A812F0E94390A61E08091D803D4
:103550000E9479010E94F60D6AE070E080E090E040
:103560000E94080246EE53E061E08F2D0E94B416DF
:103570008091E603181789F18FEF9FEF0F900F905E
:10358000DF91CF911F910F91FF9008958091CE030D
:103590009091CF032091CD0331E0309384022093AA
:1035A000A602109285021092A702DC01ED91FC9117
:1035B0000190F081E02D6F2D09958091CE039091BF
:1035C000CF03DC01ED91FC910190F081E02D612FA2
:1035D000099581E00E94CE0BBFCF81E090E0CECF75
:1035E0000F931F93CF93DF93D82FC62F8A0160913B
:1035F0005D0580914F05682B80914A050E947A1ADB
:1036000097FD25C06D2F80914B050E947A1A97FD7A
:1036100021C060914E056C2B80914D050E947A1A55
:1036200097FD1BC061E070E080E090E00E9408021E
:10363000A8016C2F80911F050E94B4169093E5039A
:103640008093E403DF91CF911F910F9108958FEF45
:103650009FEFF8CF8EEF9FEFF5CF8DEF9FEFF2CF7B
:10366000CF93DF93D82FC62F60915D0580914A05D7
:103670000E947A1A97FD28C06D2F80914B050E94F9
:103680007A1A97FD24C06C2F80914C050E947A1AFB
:1036900097FD20C060914E05616080914D050E94AC
:1036A0007A1A97FD1AC046EE53E061E08D2F0E9412
:1036B000F01A97FD15C08091E603C817A1F08AEFB4
:1036C0009FEFDF91CF9108958FEF9FEFFACF8EEFAD
:1036D0009FEFF7CF8DEF9FEFF4CF8CEF9FEFF1CF00
:1036E0008BEF9FEFEECF81E090E0EBCFCF93C82F31
:1036F0001092DA0363E1809138050E947A1A97FDEF
:1037000045C06091600580915F05CA30C8F00E9495
:10371000301B97FF04C08EEF9FEFCF91089564E6B2
:1037200070E080E090E00E94080260916105809165
:103730005F050E94301B97FF10C08DEF9FEFEDCF0C
:103740000E94301B97FDE7CF64E670E080E090E0D8
:103750000E94080260916205EACF64E670E080E0B2
:1037600090E00E94080246EE53E067E080915E051B
:103770000E94F01A6C2F809138050E947A1A97FDEA
:1037800008C0C0935A0481E090E0C7CF8FEF9FEF4D
:10379000C4CF8CEF9FEFC1CFEF92FF920F93CF93E7
:1037A000DF9300D0CDB7DEB77C01FC01828193812D
:1037B00040E054E264EF70E084309105C1F040E0F5
:1037C00052E16AE770E08330910589F040E059E00A
:1037D0006DE370E08230910551F040E452E46FE017
:1037E00070E0019721F440E854E86EE170E021E0D8
:1037F000F70184819581019709F420E0F701868122
:103800009781009759F004E08130910541F008E07C
:103810008230910521F00CE0039709F000E0CE0121
:1038200001960E94861689819A81F7019187808787
:103830000E94430A0F900F90DF91CF910F91FF905C
:10384000EF9008950F931F93CF93DF938C01EB01BB
:10385000FB01349680E2DF011D928A95E9F784E24C
:1038600090E0A0E0B0E088839983AA83BB83F8014D
:1038700083819481092E000CAA0BBB0B8C839D8342
:10388000AE83BF8386E090E0A0E0B0E088879987B0
:10389000AA87BB870E943B02688B798B8A8B9B8BA4
:1038A000D80115968D919C910E94CB1120E030E0BB
:1038B00048EC52E40E9477346C8B7D8B8E8B9F8B0F
:1038C00081E0DF91CF911F910F9108950F931F9386
:1038D000CF93DF938C01EB01FB01349680E2DF0193
:1038E0001D928A95E9F784E290E0A0E0B0E0888339
:1038F0009983AA83BB83F80183819481092E000CEC
:10390000AA0BBB0B8C839D83AE83BF838DE090E0BD
:10391000A0E0B0E088879987AA87BB870E943B0216
:10392000688B798B8A8B9B8BD80115968D919C9196
:10393000FC014385548565857685452B462B472BB1
:1039400061F00E9446116C8B7D8B8E8B9F8B81E08A
:10395000DF91CF911F910F91089560E070E080ECAE
:103960009FE7F1CF0F931F93CF93DF938C01EB0170
:1039700088E2FB0111928A95E9F74BE050E06DEC8B
:1039800071E0CE010E94303A1B8681E090E0A0E019
:10399000B0E08C879D87AE87BF87F80183819481D3
:1039A000092E000CAA0BBB0B888B998BAA8BBB8BA7
:1039B00086E090E0A0E0B0E08C8B9D8BAE8BBF8B5F
:1039C0001CA21DA21EA21FA280E090E0A6E9B3E403
:1039D0008C8F9D8FAE8FBF8F80E090E8A9E8B4E414
:1039E000888F998FAA8FBB8F86EA9BE9A4E4BCE3FA
:1039F00088A399A3AAA3BBA3DF91CF911F910F9195
:103A000008950F931F93CF93DF938C01EB0188E20E
:103A1000FB0111928A95E9F74BE050E06DEC71E003
:103A2000CE010E94303A1B8681E090E0A0E0B0E039
:103A30008C879D87AE87BF87F80183819481092E8B
:103A4000000CAA0BBB0B888B998BAA8BBB8B8DE0D0
:103A500090E0A0E0B0E08C8B9D8BAE8BBF8B1CA266
:103A60001DA21EA21FA280E090E0A0E2B2EC8C8F0B
:103A70009D8FAE8FBF8F80E090E0AAEAB2E4888F7E
:103A8000998FAA8FBB8F8AE097EDA3E2BCE388A34E
:103A900099A3AAA3BBA3DF91CF911F910F91089582
:103AA0004F925F926F927F928F929F92AF92BF924E
:103AB000CF92DF92EF92FF92CF93DF93CDB7DEB735
:103AC00064970FB6F894DEBF0FBECDBF0E945717A4
:103AD000C0900F04D0901004E0901104F0901204F4
:103AE0008090130490901404A0901504B0901604D4
:103AF00060911704709118048091190490911A0430
:103B000020912B0430912C0440912D0450912E04CF
:103B1000298B3A8B4B8B5C8B20912F043091300496
:103B200040913104509132042D873E874F87588B46
:103B30009B01AC010E943B322B013C01A701960185
:103B4000C701B6010E943B32A30192010E94943347
:103B50000E940E369B01AC01C501B4010E941334D2
:103B600069837A838B839C83A5019401C501B40189
:103B70000E943B32A30192010E9494330E940E36B0
:103B80009B01AC01C701B60190580E9413346B0130
:103B90007C0169817A818B819C810E9472342B0126
:103BA0003C0169817A818B819C810E9400366D8302
:103BB0007E838F839887C701B6010E9472344B01C0
:103BC0005C01C701B6010E94003669877A878B873E
:103BD0009C8720912704309128044091290450911A
:103BE0002A04C501B4010E943B324B015C012989C2
:103BF0003A894B895C896D817E818F8198850E948D
:103C00003B3229853A854B855C850E943B329B017E
:103C1000AC01C501B4010E9494334B015C012D85B8
:103C20003E854F855889C301B2010E943B322985E8
:103C30003A854B855C850E943B329B01AC01C501F6
:103C4000B4010E9494334B015C0129893A894B8964
:103C50005C89C301B2010E943B322B013C012D85DE
:103C60003E854F8558896D817E818F8198850E9420
:103C70003B329B01AC01C301B2010E949333A50109
:103C800094010E9413344B015C0120EE3EE245E6B4
:103C900052E4C701B6010E943B3260934402709324
:103CA0004502809346029093470220EE3EE245E6AD
:103CB00052E469817A818B819C810E943B326093BE
:103CC000400270934102809342029093430220EE9F
:103CD0003EE245E652E4C501B4010E943B326093E6
:103CE0003C0270933D0280933E0290933F026496A3
:103CF0000FB6F894DEBF0FBECDBFDF91CF91FF901E
:103D0000EF90DF90CF90BF90AF909F908F907F907B
:103D10006F905F904F900895CF92DF92EF92FF9255
:103D2000C090E201D090E301E090E401F090E50161
:103D300089E695E00E94CB1120E030E048EC52E4A7
:103D40000E947734A70196010E94773421E03EED6E
:103D500042E45EE30E94B0359B01AC0160E070E09C
:103D600080E89FE30E94933320E03AE24DE257E47B
:103D70000E943B32FF90EF90DF90CF9008951F920A
:103D80000F920FB60F9211242F933F938F939F930F
:103D9000AF93BF938091760290917702A0917802C1
:103DA000B09179023091750223E0230F2D3758F539
:103DB0000196A11DB11D2093750280937602909308
:103DC0007702A0937802B093790280917A02909161
:103DD0007B02A0917C02B0917D020196A11DB11DD4
:103DE00080937A0290937B02A0937C02B0937D0231
:103DF000BF91AF919F918F913F912F910F900FBEE7
:103E00000F901F90189526E8230F0296A11DB11D53
:103E1000D2CF1F920F920FB60F9211242F933F9380
:103E20004F935F936F937F938F939F93AF93BF93C2
:103E3000EF93FF93E0910201F09103010995FF9147
:103E4000EF91BF91AF919F918F917F916F915F9112
:103E50004F913F912F910F900FBE0F901F9018958B
:103E60001F920F920FB60F9211242F933F934F93EF
:103E70005F936F937F938F939F93AF93BF93EF93D2
:103E8000FF93E0910001F09101010995FF91EF91FD
:103E9000BF91AF919F918F917F916F915F914F9162
:103EA0003F912F910F900FBE0F901F9018951F926A
:103EB0000F920FB60F9211242F933F934F935F935E
:103EC0006F937F938F939F93AF93BF93EF93FF93E2
:103ED00085EF92E00E94DB04FF91EF91BF91AF91DB
:103EE0009F918F917F916F915F914F913F912F9112
:103EF0000F900FBE0F901F9018951F920F920FB644
:103F00000F9211242F938F939F93EF93FF93E09140
:103F10000503F09106038081E0910B03F0910C03FF
:103F200082FD1BC0908180910E038F5F8F73209163
:103F30000F03821741F0E0910E03F0E0EB50FD4FCC
:103F4000958F80930E03FF91EF919F918F912F9109
:103F50000F900FBE0F901F9018958081F4CF1F9285
:103F60000F920FB60F9211248F930FB6F894A89565
:103F700080916000886180936000109260000FBEA5
:103F80008F910F900FBE0F901F9018951F920F9258
:103F90000FB60F921124CF92DF92EF92FF920F9300
:103FA0001F932F933F934F935F936F937F938F93C1
:103FB0009F93AF93BF93CF93DF93EF93FF93C09102
:103FC0002E02D0912F028A819B81049709F0E1C0D3
:103FD0002B8D30E0F901E858FE4F8491F901E65548
:103FE000FE4F0491F901EA56FE4F1491112379F026
:103FF00081110E945001E12FF0E0EE0FFF1FE45706
:10400000FE4FA591B491EC910E2381E009F480E07C
:1040100081702E8D982F9227821719F08BA18F5FB8
:104020008BA38AA18917F1F18CA12DE1803508F4C9
:104030002BE08CA1820F8CA39AA38CA1803A08F468
:104040006DC08EA19FA1969587959FA38EA38BA1EE
:10405000853028F08EA19FA198609FA38EA38CA18C
:10406000805A8CA31BA28DA1882309F486C088A541
:104070008F5F88A78C3008F451C08EA19FA1982F24
:104080009F73892F86958695887028E0280F2817BA
:1040900069F0E82FF0E0E65EFE4F3081931739F0CB
:1040A0008F5FF5CF8CA18C5E8CA3C7CF80E090E1B1
:1040B000899F900111248EA19FA136E09695879546
:1040C0003A95E1F7482F959587959595879588704E
:1040D00098E0980F891749F0E82FF0E0E65EFE4F70
:1040E0005081451719F08F5FF5CF80E0822BDE01FC
:1040F000A359BF4F9C91AE0144595F4F911127C006
:10410000FA0180839081973018F090819434F8F010
:104110001DA2888999890196998B888BFF91EF91CF
:10412000DF91CF91BF91AF919F918F917F916F91CF
:104130005F914F913F912F911F910F91FF90EF90C1
:10414000DF90CF900F900FBE0F901F9018952C917D
:1041500091E0920F9C932C0F3D2F311DF90181A707
:104160009C91DA018C91981730F01DA281E088A310
:10417000CE010E94350718A6D1CF8EA19FA188330A
:104180009B4061F681E08DA318A6C359DF4F1882CA
:10419000C5CF8A819B81039709F68E0100591F4F75
:1041A000F801808191E0980F9083811113C06E0116
:1041B000FEE6CF0ED11CD601EC91AF56BF4F8C91CD
:1041C000E81778F0CE010E9435078C899D89019609
:1041D0009D8B8C8BD8018C91883008F49FCF1C92DA
:1041E0009DCFEC0FFD2FF11DEF58FF4F608170E068
:1041F0007E01BFE6EB0EF11CF701808191E0980F84
:10420000908302C0759567958A95E2F761708C8DF1
:104210000E947901D7018C918630E0F21C92F60160
:1042200080818F5F8083D6CF1F920F920FB60F923F
:1042300011242F933F934F935F936F937F938F93AB
:104240009F93AF93BF93EF93FF938091B900887FC3
:10425000803609F44AC0F0F5883209F4A7C018F591
:10426000803109F49BC0B8F4882309F4F9C0883080
:1042700009F494C0FF91EF91BF91AF919F918F91FD
:104280007F916F915F914F913F912F910F900FBE52
:104290000F901F901895883109F488C0803251F72B
:1042A0008093CC0214C0803409F49DC040F4803364
:1042B000B9F38833F9F68093CC0285ECB0C0803531
:1042C00009F485C0883509F496C0883499F60E94AF
:1042D0004E16D0CF883909F48CC038F5883729F0CC
:1042E00050F4883611F0803729F683E08093EE028F
:1042F00010922A0257C0883809F47BC0803919F01F
:10430000803809F0B7CF80912A02803208F071C05E
:10431000E0912A0281E08E0F80932A028091BB00F7
:10432000F0E0E65FFD4F80833DC0803B39F0E0F474
:10433000803A09F479C0883A09F09CCF84E08093F0
:10434000EE021092090210920802E0918002F091B0
:10435000810209958091080281110FC081E080934C
:1043600008021092E80109C0803C09F4A6CF883CFD
:1043700009F4A3CF883B09F07DCFE091090281E0E9
:104380008E0F80930902F0E0E851FE4F8081809308
:10439000BB00909109028091080229C08091C90256
:1043A0008093BB0085EC8093BC0064CF9091CB02DE
:1043B0008091CA02981758F5E091CB0281E08E0FE8
:1043C0008093CB02F0E0E855FD4F8081E9CFE0918A
:1043D000CB0281E08E0F8093CB028091BB00F0E096
:1043E000E855FD4F80839091CB028091CA029817C7
:1043F000C8F285E8D8CFE091CB0281E08E0F8093A0
:10440000CB028091BB00F0E0E855FD4F80838091A6
:10441000CD0281115CCF81E08093C80284EA809351
:10442000BC001092EE0226CF85EC8093BC00109267
:10443000EE0280912A02803230F4E0912A02F0E00C
:10444000E65FFD4F108260912A0270E0E0917E02EB
:10445000F0917F028AE092E0099510922A020ACF39
:104460001092CC0234CF2F923F924F925F926F9274
:104470007F928F929F92AF92BF92CF92DF92EF92F4
:10448000FF920F931F93CF93DF93CDB7DEB728979B
:104490000FB6F894DEBF0FBECDBFE5EFF2E013829A
:1044A000128288EE93E0A0E0B0E084839583A68337
:1044B000B78327E331E03183208325EC30E0358773
:1044C000248724EC30E03787268720EC30E0318BDE
:1044D000208B21EC30E0338B228B22EC30E0358BCB
:1044E000248B26EC30E0378B268B118E128E138EA8
:1044F000148EE2E9F3E0138212821582148217828D
:10450000168229E431E03183208320E5208711865B
:1045100021ECA22E23E0B22EF501138212828483B5
:104520009583A683B78383E691E091838083E9EA4C
:10453000F5E0138212821FEF14831287138714860B
:104540001586118A108A138A128A158A148A108E87
:10455000178A81E991E09183808380ED97E0928FC3
:10456000818F81E1838F39E0332E348E158E168E44
:10457000178E88E0E2E1F1E0DE01119601900D92E4
:104580008A95E1F788E0FE013196AAE1B6E0019054
:104590000D928A95E1F7A6E9B5E047E0242E15963D
:1045A0002C92159756E1952E16969C921697E1EB54
:1045B000F1E0E4911796EC931797EDE9F1E0E491BF
:1045C0001896EC93189740E85EE360E070E01D9663
:1045D0004D935D936D937C93509769E6E62E65E06D
:1045E000F62ED70113961C921E92129715961C92C6
:1045F0001E92149717961C921E92169719961C924B
:104600001E921897F701138614861586168613A630
:1046100014A68CE190E00E94FD386C01DC01139639
:104620001C921E9212977AE0872E1B968C921B97F3
:104630001E961C931E971D961C931D971C961C93EB
:104640001C9788E695E011969C938E935B961C923E
:1046500082E090E00E94FD383C0100E021E040E46F
:1046600052E46FE070E00E948616F6017382628267
:10467000E0E44E2EE2E45E2EEFE06E2E712CD601C9
:1046800014964D925D926D927C92179701E010E026
:1046900019961C930E9318971A961C92F701D582BF
:1046A000C48287E090E00E94FD38FC0183E891E03D
:1046B0009183808388E191E094838383F682E5820D
:1046C000D7011796FC93EE93169787E090E00E942F
:1046D000FD38FC0185E791E0918380831482138289
:1046E000F682E582D7011996FC93EE931897EDECCC
:1046F000F3E080E89AE1A6E0B0E083839483A583A9
:10470000B68380E886874786508A618A728A40EC41
:1047100051EE64EE70E0438B548B658B768B4CE5E9
:104720005FEE66EA73E440934C0450934D0460934B
:104730004E0470934F0440E050E068EA71E4409307
:10474000500450935104609352047093530424E630
:1047500030E030935C0420935B0440E050E060E87C
:104760007FE34093A5045093A6046093A70470933D
:10477000A8044093A9045093AA046093AB047093D7
:10478000AC044093AD045093AE046093AF047093B7
:10479000B00428EE33E03093B2042093B104AAE9C8
:1047A000CA2EA9E9DA2EED2CAEE3FA2EC092B3049C
:1047B000D092B404E092B504F092B60498E09093DD
:1047C000B7044093F2045093F3046093F40470939D
:1047D000F5044093F6045093F7046093F804709343
:1047E000F9044093FA045093FB046093FC04709323
:1047F000FD04109203051092020510930505009325
:104800000405109207051092060510930905009300
:10481000080510920B0510920A0510920D051092D2
:104820000C0510920F0510920E05109211051092B2
:1048300010052FEF3FEF309313052093120549E742
:1048400059EE6CE171E440931405509315056093A3
:1048500016057093170545E35AEF6EE87CE3409325
:1048600018055093190560931A0570931B052BE3E7
:1048700020931C0523E420931D0521E420931E05AD
:1048800029E420931F052CE1209320051092210597
:104890009093220520E12093230538E130932405ED
:1048A0004BE1409325051092260590932705209310
:1048B0002805309329053DE130932A0511E0109336
:1048C0002B0572E070932C0533E030932D0564E0E6
:1048D00060932E0555E050932F0546E04093300538
:1048E000AAE1A093310510933205709333053093FC
:1048F000340560933505509336054093370549E1FB
:104900004093380547E34093390548E340933A051F
:1049100010923B0510923C0540E440933D051093F6
:104920003E055BE650933F0550E25093400580936F
:104930004105109342056CE66093430510924405CF
:10494000209245056AE660934605509347055DE071
:104950005093480554E25093490555E250934A0557
:1049600056E250934B0553E650934C0557E2509353
:104970004D0580934E0580934F0559E650935005A1
:1049800080935105409352054EE1409353054FE10A
:104990004093540545E74093550543E2409356053F
:1049A0008093570580E7809358059093590510939D
:1049B0005A0582E780935B0584E780935C058CE071
:1049C00080935D0530935E0580925F0510926005CF
:1049D00082E180936105909262058FE08093630588
:1049E0008BE0809364051093650520936605109213
:1049F0006705B282A18288E68083148660E082E047
:104A00000E94A701ECEAF1E0E491A3EBB3E0EC93A0
:104A1000E8E9F1E0E491F0E0EE0FFF1FE457FE4F0C
:104A20008591949112969C938E9311971B961C924C
:104A30001B971D961C921D971C961C921C971A96EC
:104A40001C921A9719961C92199718961C921897EF
:104A500017961C92179716961C92169715961C92ED
:104A6000159714961C92149713961C921397ECE9C1
:104A7000F3E0168A158A1182B287A1871782108601
:104A80001082338214831583168328960FB6F89408
:104A9000DEBF0FBECDBFDF91CF911F910F91FF9071
:104AA000EF90DF90CF90BF90AF909F908F907F90CE
:104AB0006F905F904F903F902F900895CF93DF932A
:104AC000CDB7DEB7CC54D1090FB6F894DEBF0FBE18
:104AD000CDBF789484B5826084BD84B5816084BD87
:104AE00085B5826085BD85B5816085BD80916E008C
:104AF000816080936E0010928100809181008260BD
:104B000080938100809181008160809381008091F9
:104B100080008160809380008091B10084608093E8
:104B2000B1008091B00081608093B00080917A00E4
:104B3000846080937A0080917A00826080937A000A
:104B400080917A00816080937A0080917A008068F9
:104B500080937A001092C100E0910503F091060362
:104B600082E08083E0910103F09102031082E091E2
:104B70000303F09104038FEC808310920D03E09106
:104B80000903F0910A0386E08083E0910703F09126
:104B90000803808180618083E0910703F09108031E
:104BA000808188608083E0910703F0910803808111
:104BB00080688083E0910703F091080380818F7DF6
:104BC000808362E080919B050E94A7010E943B02C6
:104BD000605D77408109910960939F057093A005FE
:104BE0008093A1059093A20587E38093A805E091A7
:104BF000A503F091A60313861586148612861186E6
:104C00001086178216821582148213821092A303D3
:104C10001092A40311E0BE01635C7F4F8091A50355
:104C20009091A6030E945F14882309F477C067E07F
:104C3000CE01CD960E94CB0525969FAD2597891371
:104C4000EACF8091A3038F5F8093A3038DAD883259
:104C500031F008F049C0803111F08232E1F68091E4
:104C6000A4038F5F8093A40380919C03811128C0CB
:104C70008091A5039091A6030E948806BE01635C03
:104C80007F4F8091A5039091A6030E94690640E0A2
:104C900064EB8091A5039091A6030E943506809154
:104CA000A5039091A6030E94E205082F8091A50319
:104CB0009091A6030E948806011102C010939C03E4
:104CC0008DAD8031E1F0BE016F5F7F4FCE01CD969B
:104CD0000E94C006882331F08D818F3391F058F403
:104CE0008F31C1F080E00EC08B3309F4B8CF82342D
:104CF00009F091CFB4CF8F3579F08F3799F78CE0E9
:104D000001C08AE090919F03981708F084CF8093A8
:104D10009F0381CF89E0F6CF8BE0F4CF8CE08093C6
:104D20009F0300E08091A303081708F0A7C0602F3D
:104D3000CE01CD960E94DF148DAD803109F47EC086
:104D400010919F03BE016F5F7F4FCE01CD960E94F1
:104D5000C006882309F472C0E12F1D3008F470C02A
:104D6000ECE0EA508FE1E33020F4F0E0E65DFE4F46
:104D700080819D81981709F461C08D838091A5037E
:104D80009091A6030E948806BE01635C7F4F8091CC
:104D9000A5039091A6030E94690640E06EE480910D
:104DA000A5039091A6030E94350640E06B81809197
:104DB000A5039091A6030E94350640E06C81809186
:104DC000A5039091A6030E9435068DAD803141F078
:104DD00040E06D818091A5039091A6030E94350665
:104DE0008091A5039091A6032091A203222321F193
:104DF0000E948806882311F1BE01635C7F4F809179
:104E0000A5039091A6030E94690640919C0368E463
:104E10008091A5039091A6030E94350680919C0382
:104E2000811113C064E170E080E090E00E9408020C
:104E30008091A5039091A6030E9488060F5F72CF10
:104E4000193008F08ECFE9E08CCF80919D03882344
:104E500029F060E080919E030E94790164E170E096
:104E600080E090E00E94080280919D03882301F376
:104E700061E080919E030E947901DACF00916D0577
:104E800010916E0501151105C1F580916B0590918A
:104E90006C05009711F00E94993986E090E00E941D
:104EA000FD388C018091690590916A0527E7D8014A
:104EB0002C9312969C938E93119713961C92139792
:104EC00080E290E015969C938E93149710936C0556
:104ED00000936B050E94BE0A81E0F8018383C8013C
:104EE0000E949C0E811121C084ED91E00E94161554
:104EF00087ED91E00E941615FFCFD8011B968C918B
:104F00008F3F41F061E00E94A70161E0F8018385D5
:104F10000E947901D8018D919C91892B09F4D5C00B
:104F20000E94430A81E0F801838F80916B05909184
:104F30006C05009709F4F4C020ED298321E030E0EE
:104F4000AE014F5F5F4FBA010E947A10898190E0F5
:104F5000B0E0A0E08093740590937505A09376056A
:104F6000B093770588359105A105B10509F0BCCF4F
:104F700088E80E94F81090937D0580937C058AE86C
:104F80000E94F81090937F0580937E058CE80E9424
:104F9000F81090938105809380058EE80E94F810A8
:104FA000909383058093820580E90E94F810909386
:104FB00085058093840582E90E94F8109093870507
:104FC0008093860584E90E94F81090938905809368
:104FD000880586E90E94F81090938B0580938A05D6
:104FE00088E90E94F81090938D0580938C058AE9DA
:104FF0000E94F81090938F0580938E058CE90E9493
:10500000F81090939105809390058EE90E94F81016
:105010009093930580939205809174059091750506
:10502000A0917605B0917705892B8A2B8B2B41F1C6
:105030008DEE8093950560919405607C6093940556
:1050400067FB662760F985EF0E943810809195050F
:10505000682F6770F0E26F9FB0011124282F26950A
:1050600026952695277044E0249F90011124622BF9
:105070008295869586958370682B84EF0E94381000
:1050800064E670E080E090E00E9408028091D9031D
:10509000811155C00E94BE0A2091D0033091D103E6
:1050A0004091D2035091D30360E074E284EF90E02A
:1050B0000E946233205131094109510956954795A3
:1050C000379527952093B80048C061E0F8018485A2
:1050D0000E94A701D8011A968C911A978B7FE1F450
:1050E00060E01C968C910E947901D8011D968C91EC
:1050F0008F3F41F061E00E94A70161E0F8018585E2
:105100000E947901D8011E968C918F3F09F40ACF35
:1051100060E00E94A70106CF61E0F8018485E3CF3B
:1051200080ED898321E030E0AE014F5F5F4FBA012F
:1051300080916D0590916E050E94540E07CF1092DC
:10514000DA0361E08091D8030E94A70161E08091B9
:10515000D8030E9479010E94430A60914205809120
:105160003F050E947A1A97FD45C0609147058091DE
:1051700046050E947A1A97FD3DC0609148058091CE
:1051800049050E947A1A97FD35C0609160058091AB
:105190005F050E94301B6091410580913F050E9490
:1051A0007A1A61E070E080E090E00E94080260916D
:1051B0006505809164050E94301B609142058091D5
:1051C0003F050E947A1A97FD15C046EE53E061E054
:1051D000809155050E94B41697FD15C08091E60395
:1051E000813789F460914405809143050E947A1AC1
:1051F00097FF17C08AED91E00E94161587ED91E0A8
:105200000E941615FFCF46EE53E061E080915505F0
:105210000E94B41697FDEECF8091E603833711F319
:10522000E9CF60912405809120050E947A1A97FDAC
:10523000E1CF20E030E040E851E460911405709146
:10524000150580911605909117050E943B3220E0CC
:105250003FEF4FEF56E40E94773460933804709329
:10526000390480933A0490933B0403E010E01093D8
:1052700055040093540460912905809125050E94EE
:105280007A1A97FDB7CF2AEF30E04AE75DE36091E5
:1052900018057091190580911A0590911B050E94BF
:1052A0003B3260933C0470933D0480933E049093A2
:1052B0003F04109357040093560460912B0580918E
:1052C0002A050E947A1A97FD95CF60913205809148
:1052D00031050E947A1A97FD8DCF109259041092D1
:1052E000580460E0809138050E947A1A97FD82CFB9
:1052F00010925A0460914705809146050E947A1ADF
:1053000097FD78CF60914805809149050E947A1AEF
:1053100097FD70CF46EE53E061E0809167050E94F3
:10532000F01A97FD67CF8091E603883409F062CFC9
:105330006091600580915F050E94301B97FD5ACFF8
:1053400064E670E080E090E00E94080260916305EE
:1053500080915F050E94301B97FD4CCF64E670E0A2
:1053600080E090E00E94080246EE53E063E0809106
:1053700066050E94F01A6091E60370E090E080E01C
:105380000E94DA3120E030E040E053E40E949333A1
:1053900020E030E040E85BE30E943B3220E030E078
:1053A00040E85FE30E94943320E030E849E955E4A7
:1053B0000E943B3220E030EF4FEF56E40E947734FA
:1053C000609340047093410480934204909343049B
:1053D0006091E70370E090E080E00E94DA3120E025
:1053E00030E040E053E40E94933320E030E040E8B6
:1053F0005BE30E943B3220E030E040E85FE30E9444
:10540000943320E030E849E955E40E943B3220E043
:1054100030EF4FEF56E40E9477346093440470936A
:10542000450480934604909347046091E80370E03C
:1054300090E080E00E94DA3120E030E040E053E488
:105440000E94933320E030E040E85BE30E943B326F
:1054500020E030E040E85FE30E94943320E030E851
:1054600049E955E40E943B3220E030EF4FEF56E42B
:105470000E947734609348047093490480934A04EF
:1054800090934B046091600580915F050E94301BF2
:1054900097FDB0CE64E670E080E090E00E940802E4
:1054A0006091620580915F050E94301B97FDA2CE3E
:1054B00064E670E080E090E00E940802609142059E
:1054C00080913F050E947A1A97FD94CE46EE53E0F4
:1054D00067E080915E050E94F01A1092DA036091F5
:1054E0002605809125050E947A1A97FD83CE2AEF22
:1054F00030E04AEF5BE360911805709119058091E7
:105500001A0590911B050E943B3260933C047093F6
:105510003D0480933E0490933F04109257041092F0
:1055200056041092DA0360912E0580912A050E949C
:105530007A1A97FD5FCE60913505809131050E9402
:105540007A1A97FD57CE83E090E0909359048093A8
:10555000580483E10E94761B97FD4CCE10925D04A7
:1055600010925E0410925F04109260041092610425
:105570001092620410926304109264041092650405
:1055800010926604109267041092680410E000E024
:1055900080915B0490915C040817190708F08DC096
:1055A0000E94571760915B0470915C0490E080E06A
:1055B0000E94DA316B017C012091690430916A0408
:1055C00040916B0450916C0460911B0470911C0419
:1055D00080911D0490911E040E949433A7019601AE
:1055E0000E94773420915D0430915E0440915F0405
:1055F000509160040E94943360935D0470935E0444
:1056000080935F049093600420916D0430916E0448
:1056100040916F045091700460911F0470912004B8
:1056200080912104909122040E949433A701960155
:105630000E947734209161043091620440916304A8
:10564000509164040E9494336093610470936204E7
:1056500080936304909364042091710430917204E8
:105660004091730450917404609123047091240458
:1056700080912504909126040E949433A7019601FD
:105680000E9477342091650430916604409167044C
:10569000509168040E94943360936504709366048B
:1056A000809367049093680464E170E080E090E088
:1056B0000E9408020F5F1F4F6BCF80915D04909195
:1056C0005E04A0915F04B09160048093690490939C
:1056D0006A04A0936B04B0936C0480916104909170
:1056E0006204A0916304B091640480936D0490936C
:1056F0006E04A0936F04B093700480916504909140
:105700006604A0916704B09168048093710490933B
:105710007204A0937304B093740400915604109122
:1057200057041092DA030130110509F46AC008F435
:1057300049C00230110509F471C00330110509F4A4
:105740007AC01093570400935604009158041091A6
:1057500059041092DA030230110509F4A9C008F0C7
:1057600077C00115110509F487C00130110509F44E
:1057700094C0109359040093580480915A040E94D5
:10578000761B97FD37CD0E94DE1341E067E088E08D
:105790000E94F60A109283028093820247E050E052
:1057A00068E472E081EC93E00E941304909182021D
:1057B00080918302981709F49CC081EC93E00E94C9
:1057C000CE0CF4CF60912605809125050E947A1AAF
:1057D0002AEF30E04AEF5BE397FD0CCD60911805AE
:1057E0007091190580911A0590911B050E943B321A
:1057F00060933C0470933D0480933E0490933F0477
:10580000A0CF60912705809125050E947A1A2AEF82
:1058100030E04AE75CE397FFE1CFECCC60912805EC
:10582000809125050E947A1A2AEF30E04AEF5CE366
:1058300097FFD4CFDFCC60912905809125050E9488
:105840007A1A97FDD7CC2AEF30E04AE75DE3C6CF5E
:105850000430110509F442C0B0F10530110509F01A
:1058600088CF6091300580912A050E947A1A97FDB1
:10587000C1CC609137050AC060912B0580912A0543
:105880000E947A1A6091320597FDB4CC809131055F
:105890000E947A1A97FDAECC6CCF60912C05809156
:1058A0002A050E947A1A6091330597FFEFCFA2CCA8
:1058B00060912D0580912A050E947A1A6091340525
:1058C00097FFE4CF97CC60912E0580912A050E9426
:1058D0007A1A6091350597FFD9CF8CCC60912F054E
:1058E00080912A050E947A1A6091360597FFCECFE3
:1058F00081CC8091480290E090933B0280933A02E1
:105900008091490290E0909339028093380280910F
:105910004A0290E0909337028093360280914B02C6
:1059200090E0909335028093340280914C0290E095
:10593000909333028093320280914D0290914E02F7
:1059400090933102809330020E94BE0A89EA95E06A
:105950000E94611560E87CE080E090E00E9408020F
:10596000412C512C10E8612E1FEB712EB4E12B2E2F
:10597000312C0AE010E0E0900601F09007018DEC78
:105980009CECACE6B0E480936D0290936E02A09321
:105990006F02B09370028091A5039091A6030E94BC
:1059A000880640E06CEC8091A5039091A6030E94CC
:1059B000350640919C0364E48091A5039091A60371
:1059C0000E9435068091A003882311F1E0919F0386
:1059D0008091A103882309F494C080919C038111D4
:1059E00090C00E943B024B015C018091A503909105
:1059F000A6030E94E205813059F00E943B0268191B
:105A000079098A099B096E3E72408105910568F308
:105A100060E0CE01CD960E94DF1481119AC0812CE6
:105A2000912CFEEFAF2EF2ECBF2E8092710290927D
:105A30007202A0927302B092740220E030E0A901D9
:105A4000C501B4010E94D53118160CF0CDC020E07C
:105A500030E044E352E4C501B4010E94A33587FF5E
:105A6000C3C0F0920501E09204018091040190917D
:105A7000050190936C0280936B028230910509F4CA
:105A8000EDC20CF0B6C0009709F410C18130910549
:105A900009F461C180910401909105010297F0F031
:105AA00081E090E00E94C30E82E090E00E94C30E6D
:105AB0000E94A50F8CE38DAFAE01435C5F4FBE012A
:105AC0006F5F7F4F89EA95E00E942B15882331F0A4
:105AD00069817A818B819C810E94F1136AEF70E069
